:020000040800F2
:10000000000A002045010008A1110008790D000830
:100010009D11000821080008DB24000800000000F2
:100020000000000000000000000000001919000896
:10003000E909000800000000351200082D1A000828
:100040005F0100085F0100085F0100082D1600082D
:100050005F0100085F010008ED0900085F0100086A
:100060005F0100085F0100085F0100085F010008F0
:100070005F0100085F0100085F0100085F010008E0
:100080005F0100085F0100085F0100085F010008D0
:100090005F0100085F0100085F0100085F010008C0
:1000A0005F0100085F0100085F0100085F010008B0
:1000B0005F0100085F010008391E00085F010008A9
:1000C0005F0100085F0100085F0100085F01000890
:1000D0005F010008F91F00085F01000831210008D6
:1000E0005F0100085F0100085F0100085F01000870
:1000F0005F0100085F0100085F0100085F01000860
:100100005F0100085F010008511E00085F01000840
:100110005F0100085F0100085F010008691E000818
:100120005F0100085F0100085F0100085F0100082F
:10013000DFF80CD000F0F4FA004800475530000812
:10014000000A00200648804706480047FEE7FEE711
:10015000FEE7FEE7FEE7FEE7FEE7FEE7FEE7FEE777
:100160006D1A000831010008421C10F8011B00291B
:10017000FBD1801A70472DE9FE4F81EA030404F099
:10018000004421F0004100944FF0000B23F00043A5
:1001900050EA01045ED052EA03045BD0C3F30A5470
:1001A000C1F30A552C44A4F2F3340194A0FB025489
:1001B000C1F3130141F48011C3F3130343F480131B
:1001C00001FB024400FB034E840A970A44EA81546F
:1001D00047EA8357A4FB076802958D0A05FB07854C
:1001E0004FEA932C04FB0C542705029D4FEA065856
:1001F00047EA1637B5EB08056EEB070C870E920E33
:1002000047EA811742EA8312A7FB0201B6EB0B0112
:1002100064EB00042B0D43EA0C335E1844EB1C50D6
:10022000DA465146E7FB0201C5F313044FEA0B33EC
:1002300043EA14534FEA0432019C43EA0603A4F153
:100240000C040294009CCDE900B400F0ECF803B07B
:10025000BDE8F08F00200146F9E796230022114601
:1002600000F0A4B800F0004230F000400AD0C10D08
:1002700001F56071C0F3160042EA0151C20840075F
:1002800011437047002001467047000030B5041E3E
:1002900071F1000404DB4FF00044404264EB0101C3
:1002A000141E73F1000405DB1C464FF0004352425C
:1002B00063EB04038B4208BF824230BD30B5041E9D
:1002C00071F1000404DB4FF00044404264EB010193
:1002D000141E73F1000405DB1C464FF0004352422C
:1002E00063EB0403994208BF904230BD30B50B4622
:1002F000014600202022012409E021FA02F59D4256
:1003000005D303FA02F5491B04FA02F52844151E29
:10031000A2F10102F1DC30BD2DE9F05F05460020BD
:1003200092469B4688460646814640241BE0284666
:1003300041464746224600F020F853465A46C01A26
:10034000914110D311461846224600F0FBF92D1AB0
:1003500067EB01084F4622460120002100F0F2F928
:1003600017EB00094E41201EA4F10104DFDC4846D2
:1003700031462A464346BDE8F09F202A04DB203A56
:1003800021FA02F00021704721FA02F3D040C2F1B5
:10039000200291400843194670470029A8BF7047C2
:1003A000401C490008BF20F00100704710B4B0FAAB
:1003B00080FC00FA0CF050EA010404BF10BC704746
:1003C00049B1CCF1200421FA04F411FA0CF118BF60
:1003D000012121430843A3EB0C01CB1D4FEA00612F
:1003E0004FEA102042BF002010BC704700EBC35002
:1003F00010440029A4BF10BC7047401C490008BF2E
:1004000020F0010010BC704710B5141E73F10004F9
:1004100008DA401C41F1000192185B411A4301D1F6
:1004200020F0010010BD2DE9F04D92469B4611B120
:10043000B1FA81F202E0B0FA80F22032904600F088
:1004400081F904460F4640EA0A0041EA0B0153468F
:100450005A46084313D0114653EA010019D0C8F197
:1004600040025046FFF789FF05460E465046594662
:10047000424600F067F9084305D0012004E0204619
:100480003946BDE8F08D0020054346EAE0762C436E
:1004900037430A986305E40AA0EB08000022FD0A2E
:1004A00044EA47540A3002D500200146E9E7010535
:1004B00010196941DDE9084500196941BDE8F04DB1
:1004C000A2E72DE9FE4F804681EA0300C00F0C46EB
:1004D000009021F0004123F00045B8EB0200A94153
:1004E00005D24046214690461C460B46024623F064
:1004F0000040104347D0270DC7F30A00C3F30A5149
:100500000290401A019040286BDAC3F3130040F4C4
:10051000801B0098924620B10023D2EB030A63EBC4
:100520000B0B01985946C0F14002504600F00AF901
:1005300006460D4650465946019A00F012F910EB56
:1005400008006141002487EA115284EAE7731A43E4
:1005500040D0009A62B3019A012A4FEA075215DC93
:10056000001B61EB02014FF0004202EA0752CDE9A5
:100570000042001C41F5801132462B46FFF753FF25
:1005800003B0BDE8F08F40462146F9E7001B61EB60
:100590000201001C41F5801300185B412018A2F5F0
:1005A000001747EB030140EAD570B6196D4111E021
:1005B0006D084FEA360645EAC0754FEA0752001B40
:1005C00061EB0201001C41F5801149084FEA30003F
:1005D0000019514132462B4603B0BDE8F04FFFF7FA
:1005E00013BF0098012240000023D0EB020263EB0E
:1005F000E073009821464FEAE074B8EB000061EB2D
:100600000401E9E783F000435BE781F0004158E72C
:100610002DE9F04D81EA030404F0004B21F0004580
:1006200014464FF0000A23F0004150EA050220D0A2
:1006300054EA01021DD0C5F30A570246C5F313035D
:10064000C1F31300C1F30A5640F4801543F480133C
:10065000A7EB0608101BD64608F2FD3873EB050021
:1006600002D308F1010801E092185B41B8F1000FD4
:1006700003DA00200146BDE8F08D00204FF4801120
:10068000064684460EE0171B73EB050705D3121BC5
:1006900063EB050306434CEA010C49084FEA3000BE
:1006A00092185B4150EA0107EDD152EA030012D0E3
:1006B00082EA040083EA0501084305D0101BAB4120
:1006C00006D20122002306E000224FF0004302E0A0
:1006D0006FF0010253101AEB06004CEB085110EBBF
:1006E0000A0041EB0B01BDE8F04DFFF78DBEC1F3F1
:1006F0000A52C1F3130140F2FF3341F480119A42D0
:1007000002DA00200146704740F233439A42A2F2D7
:10071000334202DC5242FFF730BE00F013B8000053
:10072000064C074D06E0E06840F0010394E807003E
:1007300098471034AC42F6D3FFF7FEFC088300085C
:1007400028830008202A04DB203A00FA02F1002066
:1007500070479140C2F1200320FA03F319439040FF
:100760007047202A06DBCB17203A41FA02F043EA11
:10077000E07306E041FA02F3D040C2F1200291405A
:10078000084319467047000008B50121082000F011
:1007900083FD4FF48070ADF8000010208DF8030049
:1007A00003208DF802006946044800F0D6F94FF4A2
:1007B0008071024800F0A4FA08BD0000000C01405E
:1007C00010B5012000F088FD002000F085FD10BD6F
:1007D00008B50146002000900348009000980844A6
:1007E00000900098008808BD006C004008B5002209
:1007F0000092044A0092009A02440092009A11600A
:1008000008BD0000006C004010B50446214602A05F
:1008100003F0BAF810BD000025730D0A00000000B7
:1008200000BFFEE710B5002400F024F804E0601CCF
:10083000C4B2012002F096FB0D48006808B1642C98
:10084000F5DB642C01DB012010BD002404E0601CFA
:10085000C4B2012002F086FB0548006808B9642C88
:10086000F5DB642C01DB0120EEE70020ECE7000063
:100870002C01244208B54FF40060ADF80000482078
:100880008DF803006946024800F067F908BD0000D2
:100890000020014008B54FF40060ADF800001020C2
:1008A0008DF8030003208DF802006946014800F02E
:1008B00054F908BD0020014008B50121080200F0EC
:1008C000EBFC4FF40060ADF8000010208DF8030041
:1008D00003208DF802006946064800F03EF94FF407
:1008E0000061044800F00EFA00F068F8FFF79AFF84
:1008F00008BD00000020014010B5002404E0601C89
:10090000C4B2012002F02EFB0D48006808B1642C2F
:10091000F5DB002404E0601CC4B2012002F022FBDD
:100920000748006808B9642CF5DB282002F01AFBA0
:100930000348006808B1012010BD0020FCE700005A
:100940002C01244270B50024002506E06006040E48
:10095000FFF7D2FF0443681CC5B2082DF6DB204622
:1009600070BD7CB505460E4600F028F8FFF75AFF2B
:10097000F8B9002405E0FFF7E5FF0DF80400601C5E
:10098000C4B2052CF7DB9DF800009DF80110084467
:100990009DF8021008449DF8031008449DF80410C7
:1009A000884208D19DF8000030709DF80200287040
:1009B00001E001207CBD0020FCE7000010B5FFF73E
:1009C00069FF002006490860142002F0A5FA012002
:1009D0000449C1F8AC011E2002F0C4FA10BD0000A9
:1009E000AC012442000024427047000010B50120F1
:1009F00000F012F838B104480068401C0249086051
:100A0000012000F003F810BD3C00002001490860FF
:100A10007047000014040140014600200022074BEB
:100A20001B6803EA0102054B14331B680B4013B12A
:100A30000AB1012000E000207047000000040140DE
:100A400051B18200A2F1C042126842F0010382005B
:100A5000A2F1C042136009E08200A2F1C042126814
:100A6000034B1A408300A3F1C0431A607047000093
:100A7000FEFF0F00D0E901121143C2681143026961
:100A800011434269114382691143C2691143026AE9
:100A90001143426A1143826A1143C26A1143026BD5
:100AA000114302689200A2F1C042116081680829D6
:100AB0000BD101688900A1F1C041096841F04002F1
:100AC00001688900A1F1C0410A60416B0968426B6D
:100AD000526841EA0211426B926841EA0221426B7C
:100AE000928941EA0241426B128A41EA0251426B09
:100AF000127D41EA0261426B926911430268521C05
:100B00009200A2F1C0421160C16AB1F5804F1BD1C1
:100B1000816B0968826B526841EA0211826B9268AC
:100B200041EA0221826B128A41EA0251826B127DF4
:100B300041EA0261826B9269114302689200A2F15C
:100B4000C042C2F8041107E06FF0704201688900EA
:100B5000A1F1C041C1F8042170472DE9F0410246DE
:100B600000250026002000230024002791F803C060
:100B70000CF00F0591F803C00CF0100CBCF1000F45
:100B800003D091F802C04CEA050591F800C0BCF111
:100B9000000F31D0146800202BE04FF0010C0CFA4C
:100BA00000F3B1F800C00CEA03069E4220D1830096
:100BB0004FF00F0C0CFA03F7BC4305FA03FC4CEAA8
:100BC000040491F803C0BCF1280F06D14FF0010CCA
:100BD0000CFA00FCC2F814C00AE091F803C0BCF1A2
:100BE000480F05D14FF0010C0CFA00FCC2F810C000
:100BF000401C0828D1D31460B1F800C0BCF1FF0F2D
:100C000034DD546800202EE000F1080C4FF001089C
:100C100008FA0CF3B1F800C00CEA03069E4221D199
:100C200083004FF00F0C0CFA03F7BC4305FA03FCEA
:100C30004CEA040491F803C0BCF1280F05D100F17F
:100C4000080C08FA0CF8C2F8148091F803C0BCF143
:100C5000480F07D100F1080C4FF0010808FA0CF812
:100C6000C2F81080401C0828CED35460BDE8F08143
:100C7000F0B50A46002300240021002500F00046BC
:100C8000B6F1004F02D11D4EF16901E01B4E7168B3
:100C9000C0F3034583B200F44016B6F5401F08D1F7
:100CA00021F07061154E766826F07066134F7E60F5
:100CB00012E000F48016B6F5801F06D1032606FA6E
:100CC00005F4A14341F0706106E0460D360103FAD8
:100CD00006F6B14341F0706122B1460D360103FAC8
:100CE00006F6314300F00046B6F1004F02D1034E44
:100CF000F16101E0014E7160F0BD000000000140B3
:100D0000416170470161704738B50A24012501210E
:100D1000042000F0C1FAE803ADF8000048208DF887
:100D2000030003208DF8020069460F48FFF715FF06
:100D30001020ADF800008DF8030003208DF80200AC
:100D400069460948FFF709FF10210748FFF7DAFF56
:100D500001210648FFF78CFF01200549086005497D
:100D6000C1F83C01002038BD0008014000023000FD
:100D7000900121420000214200BFFEE70146CA1750
:100D800001EB92729210A1EB820292B9642091FB66
:100D9000F0F200FB121050B94FF4C87091FBF0F262
:100DA00000FB121008B9012070470020FCE7012069
:100DB000FAE70020F8E7000008B50121442000F020
:100DC0006BFA0120ADF8000028208DF80300694679
:100DD0000648FFF7C2FE1C20ADF8000048208DF841
:100DE000030069460248FFF7B8FE08BD000801404D
:100DF0000018014010B50446012C01D122490870A9
:100E00002148007801282AD12048006801280AD00A
:100E10001F48006838B11E48001F006818B11C4800
:100E200008380068D8B90A2002F076F80020164980
:100E3000087016480068012800D110BD14480068E9
:100E400008B90220F9E71248001F006808B903201A
:100E5000F3E70F4808380068A0B90420EDE70B4815
:100E6000006878B90A48006801280BD10848001FBB
:100E70000068012806D1064808380068012801D119
:100E8000014908700020D8E76000002000012142DD
:100E90001001234270B506460F484088401E83B2B9
:100EA0000D480088401E82B20021084600F04EF82E
:100EB00000240CE0002504E0304600F041F9681CF5
:100EC00085B205484088A842F6DC601C84B202481E
:100ED0000088A042EEDC70BD5800002000B502463C
:100EE0000F4882716AB9362000F01EF94C2000F0DC
:100EF00021F94FF4F0700A4948804FF4A07008803F
:100F00000CE0362000F010F92C2000F013F94FF41B
:100F1000A070034948804FF4F070088000BD0000C5
:100F20005800002070B504460D4616462B46224652
:100F30002946204600F00AF8304600F001F970BD5D
:100F400001480088704700000008006C30B5044676
:100F50000D462A2000F0E8F8201200F0EBF8E0B28D
:100F600000F0E8F8101200F0E5F8D0B200F0E2F876
:100F70002B2000F0D9F8281200F0DCF8E8B200F0DD
:100F8000D9F8181200F0D6F8D8B200F0D3F82C2017
:100F900000F0CAF830BD00002DE9F84F80460E463B
:100FA00017461C46B3462046E31704EB5373DB1089
:100FB00021464FEAE47C04EB5C7C4FEAEC0CA4EBAA
:100FC000CC0CBCF1000F02D04FF0010C01E04FF04F
:100FD000000C6344224604EBD27C4FEA6C0C03FB0A
:100FE0000CF3DBB20093A7F12000C7B2002556E056
:100FF0000C2C07D107EB47002B4901EB800010F8C0
:10100000059013E0102C05D1284800EB071010F8CC
:1010100005900BE0182C07D107EBC700244901EB22
:10102000800010F8059001E0BDE8F88F4FF0000A4D
:101030002FE009F0800030B11E480288314640465A
:10104000FFF770FF07E00A9828B91B48028831466D
:101050004046FFF767FF4FEA49604FEA1069701C8E
:1010600086B216484088B04200DCDDE7A6EB0B00F4
:10107000A0420AD15E4608F101001FFA80F80F482D
:101080000088404500DCCFE706E00AF1010000F0EF
:10109000FF0ABAF1080FCCDB00BF681CC5B200988C
:1010A0008542A5DB00BFBFE7D83900084C3E0008E9
:1010B0003C44000854000020560000205800002046
:1010C0002DE9F84704460D4690469946DDE9096743
:1010D00004F0FF0A08EB04001FFA80F809EB050092
:1010E0001FFA80F916E0444502DB5446A81985B280
:1010F0004D4500DB14E0002000903A783346294645
:101100002046FFF749FF304606EBD07104EB610142
:101110008CB27F1C38787E2802DC38782028E2DA0E
:1011200000BFBDE8F8870000014908807047000053
:10113000FE07006C01490880704700000008006C41
:101140000112024A1180C1B2118070470008006C80
:1011500008B50121482000F09FF82020ADF80000DC
:1011600010208DF8030003208DF80200694609481D
:10117000FFF7F3FC20210748FFF7C4FD2020ADF85E
:10118000000069460448FFF7E8FC20210248FFF709
:10119000B9FD08BD000C01400018014000BFFEE78A
:1011A0007047000070B5002100230F22C47804B3FB
:1011B000154C246804F4E064C4F5E064210AC1F12C
:1011C0000403CA40447804FA03F1847814402143AC
:1011D00009010E4C0678A155047804F01F0501247E
:1011E000AC4005786D11AD0005F1E025C5F8004172
:1011F00009E0047804F01F050124AC40044D067892
:10120000761145F8264070BD0CED00E000E400E0EA
:1012100080E100E002490143024A1160704700008A
:101220000000FA050CED00E001490862704700007B
:1012300000000E427047000029B1064A526902437D
:10124000044B5A6104E0034A52698243014B5A61DC
:10125000704700000010024029B1064AD2690243DB
:10126000044BDA6104E0034AD2698243014BDA613C
:10127000704700000010024029B1064A126902437B
:10128000044B1A6104E0034A12698243014B1A615C
:10129000704700000010024029B1064A92690243DB
:1012A000044B9A6104E0034A92698243014B9A61BC
:1012B000704700000010024029B1064AD26802437C
:1012C000044BDA6004E0034AD2688243014BDA60DF
:1012D000704700000010024001490860704700009C
:1012E0004004424230B500210022002400232D4D4D
:1012F0006D6805F00C0121B1042905D0082923D11E
:1013000005E0294D056022E0274D05601FE0254DD1
:101310006D6805F47012234D6D6805F48034022564
:1013200005EB92421CB9214D554305600BE01D4D64
:101330006D6805F400351DB11C4D5543056002E094
:10134000194D5543056002E0174D056000BF00BF11
:10135000144D6D6805F0F0010909154D6B5C0568C9
:10136000DD4045600F4D6D6805F4E061090A104DE0
:101370006B5C4568DD4085600A4D6D6805F4605121
:10138000C90A0B4D6B5C4568DD40C560054D6D6855
:1013900005F44041890B074D6B5CC568B5FBF3F55F
:1013A000056130BD0010024000127A0000093D00C6
:1013B000400000205000002010B50146002200230C
:1013C00000204A11012A02D1094C236806E0022AB2
:1013D00002D1074C236A01E0054C636A01F01F0249
:1013E000012494401C400CB1012000E0002010BDFD
:1013F0000010024000210B4A11700A4A203A82F87C
:101400002010012802D0042808D103E00121054A58
:10141000117004E00521034A117000E000BF00BF15
:10142000704700002010024001490860704700002A
:101430003C0442420249096A0143014A1162704771
:1014400000100240024909888143014A1180704717
:10145000042800400348008840F01000014908803B
:101460007047000004280040034800884FF6EF71E1
:1014700008400149088070470428004070B50026E4
:101480000024002500F07AF806463848B6FBF0F450
:1014900037480088A0423CD035490C8040F2B275F4
:1014A00010E02846FFF76AFC40B1B4F5B77F02D3DD
:1014B000A4F5B77404E0681C85B206E0A4F26D14CC
:1014C000681C85B2B4F5B67FEBD800BF294885808B
:1014D000002516E027498888FFF750FC30B1012D20
:1014E00004D11D2C01D31D3C09E00CE02248405DD5
:1014F000A04203D82048405D241A00E003E0681CA5
:1015000085B21C2CE6D200BF681C1A498871601C89
:10151000C8711648B6FBF0F100FB11644FF461602E
:10152000B4FBF0F0134908704FF46160B4FBF0F1C4
:1015300000FB11403C21B0FBF1F00E4948704FF424
:101540006160B4FBF0F100FB11403C21B0FBF1F213
:1015500001FB1200074988700B46DA79997998885F
:1015600000F028F803490872002070BD8051010086
:10157000620000207C000020FC820008002103485B
:101580000188001F008841EA004070471C28004085
:1015900001460020064A12880A40D0B2044A121FAF
:1015A00012880A4012B108B1012000E00020704703
:1015B00004280040F0B503460C461546642093FB12
:1015C000F0F0C6B2642093FBF0F700FB1730C1B215
:1015D000132E02DD01F16400C1B20846CF1701EB02
:1015E000977701EBA707BAB2072092FBF0F700FB51
:1015F000172082B25719601EDFF82CC01CF80000BB
:10160000384482B2CF1701EB9777BF10A1EB870761
:101610001FB9032C01DA501E82B2072092FBF0F7AB
:1016200000FB1720C0B2F0BDF08200080EB501200B
:10163000FFF7AEFF88B1FFF721FF17488078164902
:101640004978154A1278CDE9002102901248C379F1
:101650008279818811A000F043FF0220FFF798FFF4
:10166000A0B10220FFF7EEFEFFF708FF0A488078DE
:1016700009494978084A1278CDE9002102900648C4
:10168000C379827981880DA000F02AFF0520FFF739
:10169000D9FE00F025F90EBD7C00002052544320F5
:1016A00054696D653A25642D25642D2564202564D3
:1016B0003A25643A25640D0A00000000416C61720D
:1016C0006D2054696D653A25642D25642D256420AF
:1016D00025643A25643A25640D0A000029B1064ABA
:1016E00012880243044B1A8004E0034A12888243A2
:1016F000014B1A8070470000002800401CB50024F0
:1017000001214FF0C050FFF7A7FD0120FFF78CFD2E
:101710000420FFF75DF84AF2A001884240D0FFF7AD
:101720004FF80120FFF766FE04E0601CC4B20A20F7
:1017300001F0F2FB4120FFF73FFE08B9FA2CF4DB81
:10174000FA2C01DB01201CBD4FF48070FFF772FE04
:101750000120FFF769FE00F0C3F800F0CBF801218B
:101760000846FFF7BBFF00F0BBF8FFF773FE47F634
:10177000FF7000F0A5F800F0B3F837202221112304
:101780000122CDE900100B2140F2E37000F026F8B1
:10179000FFF76AFE4AF2A0010420FFF727F807E0EE
:1017A00000F0A8F801210846FFF798FF00F098F82C
:1017B00000F004F8FFF762FE0020C4E708B503203C
:1017C0008DF8000000208DF801008DF80200012046
:1017D0008DF803006846FFF7E5FC08BD2DE9F05FD2
:1017E00006460F4690469946DDE90AAB002440F2D2
:1017F000B270864203DB40F63300864202DD0120F0
:10180000BDE8F09F40F2B2750AE02846FFF7B6FA4D
:1018100010B12048044401E01F480444681C85B20C
:10182000B542F2DB781EC7B2002510E01B48405DD0
:1018300040F2A321484304EBC0143046FFF79EFA60
:1018400018B1012D01D116480444681C85B2BD426F
:10185000ECDBA8F1010040F2A321484304EBC014E3
:10186000C9EB4910C0EB092004EB0014CAEB0A10C5
:1018700004EB80045C4401214FF0C050FFF7ECFC06
:101880000120FFF7D1FC204600F00CF800F028F80A
:101890000020B5E70085E2018033E101FC82000809
:1018A0008051010000B50246FFF7D4FD100C03493A
:1018B0000880091D0A80FFF7D7FD00BD18280040E9
:1018C00000B50246FFF7C6FDC2F303400349088096
:1018D000091D0A80FFF7C8FD00BD00000828004070
:1018E00000BF0348008800F020000028F9D07047AE
:1018F00004280040074800884FF6F7710840054962
:10190000088000BF0348008800F008000028F9D0D4
:101910007047000004280040704710B500F002F83E
:1019200010BD00000CB50020019000903348006805
:1019300040F480303149086000BF3048006800F44E
:10194000003000900198401C0190009818B901984F
:10195000B0F5A06FF1D12948006800F4003010B153
:101960000120009001E0002000900098012843D160
:101970002348006840F010002149086008460068CC
:1019800020F0030008600846006840F0020008608C
:101990001A48406819494860084640684860084647
:1019A000406840F4806048600846406820F47C103D
:1019B00048600846406840F4E810486008460068FF
:1019C00040F08070086000BF0C48006800F00070B4
:1019D0000028F9D00948406820F003000749486012
:1019E0000846406840F00200486000BF0348406875
:1019F00000F00C000828F9D10CBD000000100240D6
:101A000000200240042808D14FF0E021096941F08C
:101A100004014FF0E022116107E04FF0E021096975
:101A200021F004014FF0E02211617047704700007F
:101A300010B504466FF00400FFF7E4FFE11704EB74
:101A40005171C1F3C701074A11701046007800EBCD
:101A50004001C1EBC0104FF6FF7101EAC00002491E
:101A6000088010BD660000206800002010B51348F3
:101A7000006840F0010011490860084640681049BC
:101A800008400E494860084600680E4908400B4966
:101A900008600846006820F4802008600846406816
:101AA00020F4FE0048604FF41F008860FFF735FF08
:101AB0004FF000600449086010BD000000100240B3
:101AC0000000FFF8FFFFF6FE08ED00E000B59DB056
:101AD00001210802FFF7B0FB0120079000200890C9
:101AE0000F20099000200A900B900C900D9015206B
:101AF0000090019005200290002003900490059032
:101B0000069006200E9000200F901090102011904B
:101B10000020129014901390159016904FF480505E
:101B20001790002018904FF48040199000201A90D0
:101B300007A81B90CDF870D00EA8FEF79BFF0121DF
:101B40000620FEF77DFF1DB000BD000008B5012195
:101B50004FF4B470FFF7A0FB4CF23370ADF8000007
:101B600018208DF8030003208DF8020069461848FC
:101B7000FEF7F3FF4FF68070ADF8000018208DF8E7
:101B8000030003208DF8020069461248FEF7E5FFC6
:101B900041F20100ADF8000018208DF80300032089
:101BA0008DF8020069460C48FEF7D7FF0120ADF81A
:101BB000000010208DF8030003208DF80200694614
:101BC0000648FEF7CAFF01200549086008BD00006D
:101BD000001401400018014000200140000C0140A9
:101BE0008081214210B5FFF7B1FFFFF76FFF322070
:101BF00001F092F9D020FFF797FAFFF7A1F9894990
:101C00008880FFF79DF9874988800846818886A0EB
:101C100000F066FC1120FFF787FA4FF4FA7401E038
:101C2000601E84B2002CFBDCB920FFF77DFAFF2098
:101C3000FFF780FA8320FFF77DFA5720FFF77AFA43
:101C40004FF4FA7401E0601E84B2002CFBDCB1207A
:101C5000FFF76AFA0020FFF76DFA1420FFF76AFA1F
:101C60001C20FFF767FA1C20FFF764FAC320FFF778
:101C700061FA4420FFF75EFA7020FFF75BFA4FF439
:101C8000FA7401E0601E84B2002CFBDCB420FFF784
:101C90004BFA2220FFF74EFA4020FFF74BFA0020C4
:101CA000FFF748FA2A20FFF745FA2A20FFF742FA01
:101CB0002020FFF73FFA9120FFF73CFA4FF4FA7427
:101CC00001E0601E84B2002CFBDC3620FFF72CFA0A
:101CD0004C20FFF72FFAC020FFF726FA5020FFF71D
:101CE00029FA5020FFF726FA0120FFF723FA3C20BB
:101CF000FFF720FAC820FFF71DFA0820FFF71AFAAD
:101D00000020FFF717FA0820FFF714FA0420FFF766
:101D100011FA4FF4FA7401E0601E84B2002CFBDC6F
:101D20004FF4FA7401E0601E84B2002CFBDCE0206A
:101D3000FFF7FAF90B20FFF7FDF91120FFF7FAF989
:101D40001E20FFF7F7F93020FFF7F4F93A20FFF7EC
:101D5000F1F94320FFF7EEF94E20FFF7EBF956209B
:101D6000FFF7E8F94520FFF7E5F93F20FFF7E2F933
:101D70003920FFF7DFF93220FFF7DCF92F20FFF7DA
:101D8000D9F92A20FFF7D6F92920FFF7D3F9212026
:101D9000FFF7D0F90B20FFF7CDF91120FFF7CAF9B3
:101DA0001E20FFF7C7F93020FFF7C4F93A20FFF7EC
:101DB000C1F94320FFF7BEF94E20FFF7BBF95620CB
:101DC000FFF7B8F94520FFF7B5F93F20FFF7B2F963
:101DD0003920FFF7AFF93220FFF7ACF92F20FFF7DA
:101DE000A9F92A20FFF7A6F92920FFF7A3F9212056
:101DF000FFF7A0F90020FFF79DF90120FFF79AF9FE
:101E00003A20FFF791F90520FFF794F92920FFF711
:101E10008BF90020FFF762F84FF6FF70FFF73AF8F2
:101E200010BD000058000020204C43442049443A93
:101E300025780D0A0000000010B50121034800F0CC
:101E40006CF80121014800F059F810BD000800406D
:101E500010B50121034800F060F80121014800F0AD
:101E60004DF810BD000C004010B50121094800F0EC
:101E700054F868B10848008840F4004006490880DA
:101E80000121044800F03AF80021024800F039F836
:101E900010BD000000140040640000207FB505461E
:101EA0000C4601212020FFF7D7F9ADF80450ADF81A
:101EB00000400020ADF80600ADF8020069460E486B
:101EC00000F048F8012211460B4800F037F80121D4
:101ED000094800F016F837208DF80C0000208DF826
:101EE0000D0002208DF80E0001208DF80F0003A8D0
:101EF000FFF758F97FBD000000140040CA4302827A
:101F0000704721B1028842F00102028004E0028899
:101F10004FF6FE731A400280704730B5024600202B
:101F200000230024158A05EA0103958905EA0104C6
:101F300013B10CB1012000E0002030BD1AB183893B
:101F40000B43838102E083898B43838170478184C3
:101F500070470000002202881D4B98420ED01D4B96
:101F600098420BD0B0F1804F08D01B4B984205D05F
:101F70001A4B984202D01A4B984204D14FF68F73F5
:101F80001A404B881A43174B984207D0164B984279
:101F900004D04FF6FF431A40CB881A4302808B8847
:101FA00083850B8803850A4B98420BD0094B9842D6
:101FB00008D00E4B984205D00D4B984202D00D4BE5
:101FC000984201D10B7A0386012383827047000077
:101FD000002C014000340140000400400008004093
:101FE000000C004000100040001400400040014080
:101FF000004401400048014010B540F225511D4801
:1020000000F0A7F910B31B4800F05EFAC4B21A48FA
:10201000008800F40040C8B91748008800F48040E8
:1020200060B10A2C03D000201349088020E0124838
:10203000008840F400401049088019E00D2C06D1BA
:102040000D48008840F480400B49088010E00A48A1
:102050000088C0F30D0009490C5407480088401C53
:102060000549088008460088C72801DD002008804F
:1020700010BD0000003801406A0000203605002035
:1020800010B586B0044601210420FFF705F90121AF
:102090008803FFF701F94FF40070ADF81400032036
:1020A0008DF8160018208DF8170005A91E48FEF7B8
:1020B00054FD4FF48060ADF8140004208DF8170033
:1020C00005A91948FEF749FD01940020ADF8080064
:1020D000ADF80A00ADF80C00ADF810000C20ADF81A
:1020E0000E0001A9114800F083F901210F4800F00A
:1020F000C8F840210D4800F0BBF8012240F22551FC
:102100000A4800F050F925208DF8000003208DF8D2
:1021100001008DF8020001208DF803006846FFF7EA
:1021200041F806B010BD0000000801400038014031
:1021300010B540F22551164800F00BF9F8B11448DB
:1021400000F0C2F9C4B21348008800F40040B0B9EE
:1021500010480088B0F5167F12DA00210E48FFF70C
:10216000F6FE0C48008818B901210B48FFF7C9FE9C
:1021700008490888411C074A118008490C5405E0A9
:102180000448008840F400400249088010BD000067
:102190000048004064000020001400408600002039
:1021A00010B586B0044601210820FFF775F801211B
:1021B0008804FFF751F82A4800F070F84FF4806067
:1021C000ADF8100003208DF8120018208DF81300D0
:1021D00004A92448FEF7C1FC4FF40060ADF81000DC
:1021E00004208DF8130004A91E48FEF7B6FC0094E5
:1021F0000020ADF80400ADF80600ADF80800ADF819
:102200000C000C20ADF80A006946154800F0F0F803
:102210000121134800F035F8012240F22551104801
:1022200000F0C1F827208DF8140002208DF8150069
:1022300003208DF8160001208DF8170005A8FEF781
:10224000B1FF41F61F416320FFF728FE0020064939
:10225000088000210548FFF754FE06B010BD0000BD
:1022600000480040000C01406400002000140040C1
:1022700001F40072B2F5007F00D100BFCA430280B2
:10228000704721B1828942F40052828104E0828940
:102290004DF6FF731A4082817047000010B5044666
:1022A0002048844209D101218803FFF705F8002165
:1022B0004FF48040FFF700F832E01B48844209D118
:1022C00001214804FEF7D8FF00214FF40030FEF74B
:1022D000D3FF25E01548844209D101218804FEF787
:1022E000CBFF00214FF48020FEF7C6FF18E0104816
:1022F000844209D10121C804FEF7BEFF00214FF43A
:102300000020FEF7B9FF0BE00A48844208D1012102
:102310000805FEF7B1FF00214FF48010FEF7ACFF77
:1023200010BD00000038014000440040004800405B
:10233000004C00400050004002460020B1F5007FF4
:1023400000D100BF13880B400BB1012000E000203A
:10235000704770B50246002400230025002040F697
:102360006A16B14200D100BFC1F3421501F01F034C
:10237000012606FA03F3012D02D19689334006E0C7
:10238000022D02D1168A334001E0968A33400C12A6
:10239000012606FA04F41688344013B10CB101206A
:1023A00000E0002070BDF0B50346002400260025A3
:1023B000002040F66A17B94200D100BF1846C1F3A9
:1023C000421401F01F06012707FA06F5012C01D17E
:1023D0000C3004E0022C01D1103000E014301AB1AE
:1023E00007682F43076002E00768AF430760F0BD4E
:1023F0002DE9F04786B005460E460024A24600BFF0
:10240000A1460027B08900B100BF2F462C8A4CF6A8
:10241000FF700440F08804432C82AC894EF6F31020
:102420000440B08831890843718908430443AC8172
:10243000AC8A4FF6FF400440B0890443AC8201A847
:10244000FEF750FF1F48874202D1DDF810A001E0DF
:10245000DDF80CA0A88900F4004040B10AEBCA00E6
:1024600000EB0A1031684900B0FBF1F807E00AEB15
:10247000CA0000EB0A1031688900B0FBF1F8642053
:10248000B8FBF0F004012009642101FB1089A88940
:1024900000F4004040B1322000EBC900B0FBF1F085
:1024A00000F00700044308E0322000EB091064212B
:1024B000B0FBF1F000F00F0004432C8106B0BDE842
:1024C000F08700000038014001468888C0F308000A
:1024D0007047C1F308028280704700BFFEE700002A
:1024E0000FB4054B10B503A9044A029800F000F997
:1024F00010BC5DF814FB0000B12F00086C00002038
:102500000FB4084B10B504A902AA039800F0F0F824
:10251000044602A9002000F082FC204610BC5DF8B1
:1025200014FB00001F2E000837B514460846064B62
:102530006A46214600F0DCF804466946002000F0B7
:102540006EFC20463EBD00001F2E000802E008C8B9
:10255000121F08C1002AFAD170477047002001E01D
:1025600001C1121F002AFBD1704700002DE9FF5F57
:1025700082B00021DDE90430020DDDF840B00343F4
:1025800018D044F61050A2F2FF32424315141198AD
:1025900001281FD0A5EB0B00401C5FEA000A4FF09A
:1025A00000064E4FDFF83891B046504615D5CAF1B7
:1025B000000413E0119801244AA3012801D16FEA15
:1025C0000B010298119AC0E90031C0E9024206B03D
:1025D000BDE8F09FCBF10000DFE704460021404A50
:1025E000491842EB0450CDE9001012E0E00707D093
:1025F00032463B4640464946FDF7BDFD804689468A
:1026000032463B4610461946FDF7B5FD06460F46D5
:102610006410002CEAD1DDE90401DDE90023BAF100
:10262000000F06DAFDF7A7FD42464B46FDF7A3FD76
:1026300005E0FDF7EDFF42464B46FDF7E9FF044696
:102640000E460022284BFDF739FE03D84FF0FF302D
:10265000014607E00022254B20463146FDF731FFB9
:10266000FEF745F8102409E0002C0ADB0A220023BB
:10267000FDF752FE039B30321A55641E50EA0102E8
:10268000F2D1641C039AC4F111031444119A012A73
:1026900003D0012208430DD10AE0084304D00020F2
:1026A0004FF0110B119072E7A3EB0B056D1E0DE0BF
:1026B0005B4504DD4FF0000205F1010504E003DA9B
:1026C0004FF00002A5F10105002AECD00298119903
:1026D000C0E90231C0E9004579E70000000014407C
:1026E0000000F03F300000000000F0430000E03F39
:1026F0002DE9FF4F95B09B468946064600250FE21F
:10270000252877D100242746F84A0121059400E0C6
:10271000044316F8013F203B01FA03F01042F7D1C1
:1027200030782A2811D06FF02F033078A0F13002D2
:10273000092A16D8059A44F0020402EB820203EB40
:1027400042021044761C0590EFE759F8042B0592DD
:10275000002A03DA504244F40054059044F0020485
:10276000761C30782E2816D116F8010F44F0040498
:102770002A280DD06FF02F023078A0F13003092BFA
:1027800009D807EB870302EB4303C718761CF3E76E
:1027900059F8047B761C30786C280FD006DC4C2866
:1027A00017D068280DD06A2814D104E0742810D0FE
:1027B0007A280FD10DE044F400140AE044F48014A8
:1027C00001E044F440147278824202D104F580148E
:1027D000761C761C307866280BD013DC582877D00E
:1027E00009DC002875D04528F6D04628F4D04728C3
:1027F0001AD19DE118E0632835D0642879D0652886
:1028000012D195E1702873D008DC6728F1D06928CF
:102810006FD06E280DD06F2806D1B5E073282CD06C
:10282000752875D0782874D05A46179990476D1C32
:1028300075E1C4F30250022809D003280DD0D9F85D
:10284000001004280DD00D6009F1040967E1D9F8E2
:102850000010EA17C1E90052F6E7D9F800100D8020
:10286000F2E70D70F0E719F8041B8DF80010002056
:102870008DF80100EA46012003E059F804AB4FF05F
:10288000FF3061074FF0000102D40DE008F10101B3
:102890008846B9420FDA8045F8DB1AF8081000299B
:1028A000F4D108E008F1010188468142FADB1AF808
:1028B00008100029F6D105985B46A0EB08072146D1
:1028C0003846179A00F094FA284400EB080507E010
:1028D0004DE029E10DE01AF8010B5A46179990478F
:1028E000B8F10108F7D25B4621463846179A13E142
:1028F00042E00A220092C4F302524FF0000A022A78
:1029000008D059F804CB032A4FEAEC710AD00DE045
:1029100029E02AE009F1070121F00702F2E802C1EB
:10292000914609E00FFA8CFC4FEAEC71042A03D1BE
:102930004FFA8CFC4FEAEC71002907DA0A460021B5
:10294000DCF1000C61EB02012D2202E0220504D52E
:102950002B228DF80420012203E0E20701D020227F
:10296000F7E7904659E00A2102E010220DE010211D
:102970004FF0000A00910BE010224FF0000A44F0E3
:1029800004040827009203E008224FF0000A009296
:10299000C4F30252022A05D059F804CB0021032ABD
:1029A00008D009E009F1070121F00702F2E802C1AD
:1029B000914605E01FFA8CFC042A01D10CF0FF0CB3
:1029C0004FF00008220728D5702806D0009B83F01E
:1029D000100353EA0A0305D00EE040228DF80420CC
:1029E000012208E05CEA010206D030228DF80420C2
:1029F0008DF8050002229046009B83F0080353EAFD
:102A00000A030AD15CEA010201D1620705D530222E
:102A10008DF804204FF001087F1E582804D034A000
:102A200003900EA802900DE036A0F9E753466046E9
:102A3000009AFDF771FC84460398825C0298401E60
:102A4000029002705CEA0100F0D1029806A9081A0F
:102A500000F1200A600702D524F4803400E0012749
:102A6000574502DDA7EB0A0000E0002000EB0A0159
:102A7000009005984144401A0590E00306D45B4657
:102A80002146179A059800F0B3F90544002706E09F
:102A900001A85A46C05D179990476D1C7F1C474599
:102AA000F6DBE0030CD55B462146179A059800F04B
:102AB0009FF9054404E030205A46179990476D1C51
:102AC0000099481E00900029F5DC08E00298029960
:102AD0005A460078491C0291179990476D1CBAF12B
:102AE0000001AAF1010AF1DC65E1000009280100FA
:102AF0003031323334353637383961626364656674
:102B00000000000030313233343536373839414235
:102B1000434445460000000000F058F90544761C87
:102B2000307800287FF4ECAD19B02846BDE8F08F6E
:102B3000620700D4062709F1070222F0070CFCE81F
:102B40000223E14603F000485FEA080C02D00FF2CE
:102B5000702C0DE05FEA045C02D50FF2682C07E0F0
:102B60005FEAC47C02D00FF2602C01E0AFF2700C7F
:102B70004FF0FF3823F00043CDF850C065280CD04B
:102B800006DC452809D046281DD047283DD13DE028
:102B9000662818D067287ED138E00021112F01DB8C
:102BA000112000E0781CCDE9000106A90EA8FFF76E
:102BB000DDFCDDE90F010E9A03910021009207F17F
:102BC000010A04914DE04FF000400097CDE901105B
:102BD00006A90EA8FFF7CAFCDDE90F0203920E9BBF
:102BE00011990022DDF80CA00093049211B9791C10
:102BF00000EB010AB7EB0A0004D4C0F1FF3007F183
:102C0000010A0490AAEB0700019044E0012F00DACA
:102C100001270021112F01DD112000E03846CDE908
:102C2000000106A90EA8FFF7A1FCDDE90F010E9A2D
:102C30000391002104910092BA4621070CD4039914
:102C4000514500DA8A46BAF1010F05DD009AAAF172
:102C50000101515C302908D0B84202DA10F1040FAA
:102C600006DA0121CDE9011015E0AAF10101E9E739
:102C7000002805DC049901440491AAEB000102E05C
:102C8000411C514500DD8A460499401A401C0190C0
:102C90004FF000400290200704D40198504501DB1A
:102CA000CDF8048000208DF84F0002980DF14F07F9
:102CB000B0F1004F25D02B200E9002984FF0020863
:102CC00000280CDA404202902D200E9007E00A21E5
:102CD0000298FDF70BFB3031029007F8011DB8F1A7
:102CE0000001A8F10108F2DC02980028EFD1791E5A
:102CF0000E980870307800F0200040F0450007F88A
:102D0000020D12A8C01B00F107081498007800B14A
:102D1000012000EB0A01019801EBE07105984144A4
:102D2000401A401E0590E00306D45B462146179AE0
:102D3000059800F05DF805441498007818B15A46DB
:102D4000179990476D1CE00324D55B462146179ADE
:102D5000059800F04DF805441CE00498002807DBB6
:102D6000DDE90301884203DD0098405C179901E02A
:102D7000179930205A469047049805F10105401CE8
:102D800004900198401E019004D12E205A461799B4
:102D900090476D1CBAF10001AAF1010ADDDC05E0E3
:102DA00017F8010B5A46179990476D1CB8F10001AE
:102DB000A8F10108F4DC5B462146179A0598ABE6BA
:102DC0002D0000002B000000200000002DE9F04144
:102DD000044600251E461746880404D405E03946FB
:102DE0002020B0476D1C641EF9D52846BDE8F0814F
:102DF0002DE9F041044600251E469046C80301D542
:102E0000302700E02027880404D505E041463846F5
:102E1000B0476D1C641EF9D52846BDE8F0810A68EC
:102E2000531C0B60107070477CB50020019000901F
:102E3000694601A8FDF795FD002831D19DF80400F1
:102E4000FDF70BFA174948609DF80000FDF705FAF9
:102E5000144988604868FDF705FA04460022124BC1
:102E6000FDF72CFA13D30F494868FDF7FBF9044628
:102E700000220E4BFDF70AFA09D30A498868FDF7CC
:102E8000F1F9044600220A4BFDF718FA05D2012099
:102E9000044948700320087002E00020014948708E
:102EA0007CBD00007000002000003E400000244077
:102EB0000080514010B5154B19785A7800201FE05A
:102EC00000EB400303EB0013114C23449B7CABB994
:102ED00000EB400303EB001323441B7C8B420DD11A
:102EE00000EB400303EB001323445B7C934205D1CA
:102EF000084BD8700123074C237005E0431CD8B25F
:102F0000044B9B788342DBDC00BF10BD7C000020BB
:102F100000000020700000200146114A12884A4338
:102F20004FF0E0235A6100229A611A46126942F07A
:102F300001021A6100BF4FF0E022106900F00102A7
:102F40001AB100F48032002AF5D04FF0E022126965
:102F500022F001024FF0E0231A6100229A617047CB
:102F6000680000200146114A12784A434FF0E023DE
:102F70005A6100229A611A46126942F001021A61EE
:102F800000BF4FF0E022106900F001021AB100F416
:102F90008032002AF5D04FF0E022126922F00102BF
:102FA0004FF0E0231A6100229A617047660000200A
:102FB00070B504460D46E1B20548FFF78AFA00BF36
:102FC00080210348FFF7B8F90028F9D0204670BDEA
:102FD0000038014000B591B014480068032823D39D
:102FE00001201349C97801EB410202EB0111114A9A
:102FF0001144887402200E49087000200B490860B3
:103000000D48407800900C4803780948C07800EBE0
:10301000400101EB00101146421808A101A8FFF77A
:103020006FFA01A8FDF7F0FB11B000BD3C000020D5
:1030300070000020000000207C0000204D45445F0F
:1030400054414B454E3A25732C253032643A253095
:103050003264000092B0002600BF00274820FEF72F
:10306000E7FC4FF4A060FEF7D5F8FEF771F84FF4D7
:10307000E130FFF705F84FF41650FFF791F8FEF72F
:10308000B1FDFDF799FEFEF739FBFDF715FCFDF7E5
:103090007BFBFDF739FE00F069FC1F20FDF7FAFE0F
:1030A0004FF6FF705449088054A020212823C822DD
:1030B000CDE9001064211846FEF702F854A018214B
:1030C0001E23C822CDE9001096211420FDF7F8FF39
:1030D0004FF4FA60FFF720FF8CE05248457800BFBC
:1030E000B54204D0FFF7E6FEFFF79EFE2E464E489F
:1030F000007801280ED14D4908604D48D0F8940160
:1031000008B9012000E0002048490C390860FFF7A9
:1031100061FF12E044480078032806D101204349AA
:1031200008604449C1F8940107E000203F49086065
:103130003F49C1F89401404908600020FDF75AFE5C
:103140000446002C3CD0012C33D1374800780128AC
:1031500020D13549C97801EB410202EB0111374A10
:10316000114488740220304908702E48407800903D
:103170002C4803780846C07800EB400101EB0010B2
:10318000114642182EA102A8FFF7BAF902A8FDF7CE
:103190003BFB15E024480078022803D02248007841
:1031A000032804D1002020490870002708E00027E8
:1031B00006E0022C01D1012702E0032C00D10227F6
:1031C0001948007878B927B1012F05D0022F09D10D
:1031D00005E000F03FFA05E000F02EFB02E000F011
:1031E00085F900BF03E01049087800F035F8642045
:1031F000FFF792FE71E7000054000020536D6172EA
:1032000074204D65646963696E6520426F780000C3
:1032100053797374656D205374617274696E672E8F
:103220002E2E00007C00002070000020A081214292
:10323000008021420000234294012342000000202C
:103240004D45445F54414B454E3A25732C25303251
:10325000643A25303264000070B59CB00446012CFD
:103260003FD14FF6E070FDF715FE4FF478406E4900
:1032700008806EA020212823C822CDE900103C211F
:103280000846FDF71DFF6D48C07800EB400101EBDB
:1032900000106B4942186BA10FA8FFF731F900200D
:1032A000614908800FA818211E23C822CDE900100B
:1032B00078213220FDF704FF65A010211E23C822CB
:1032C000CDE90010B4211846FDF7FAFE60A01021E8
:1032D0001E23C822CDE90010D2213C20FDF7F0FECC
:1032E0009FE0022C34D14FF4FC60FDF7D3FD1F208A
:1032F0004D4908805BA020212823C822CDE9001079
:103300003C210846FDF7DCFE4C48C07800EB40014C
:1033100001EB00104A49421854A10FA8FFF7F0F83A
:103320000020414908800FA818211E23C822CDE99A
:10333000001078213220FDF7C3FE4FA010211E237C
:10334000C822CDE90010B4215020FDF7B9FE68E095
:10335000032C66D14FF47840FDF79CFD4FF6FF70CB
:10336000314908804AA020212823C822CDE9001035
:103370003C210846FDF7A4FE30494868FCF772FF7F
:1033800005460022454BFCF799FF0BD22B494868B4
:10339000FCF768FF05462A460B4641A102A8FFF745
:1033A000AFF820E025494868FCF75CFF054600229D
:1033B000404BFCF76BFF0BD220494868FCF752FFEB
:1033C00005462A460B463CA102A8FFF799F80AE0F9
:1033D0001A498868FCF746FF05462A460B463AA17B
:1033E00002A8FFF78DF802A818211E23C822CDE9F4
:1033F000001078211846FDF763FE38A010211E2327
:10340000C822CDE90010A0211846FDF759FE1AA0E8
:1034100010211E23C822CDE90010BE213C20FDF75B
:103420004FFE1CB070BD00005400002054616B655D
:10343000204D65646963696E65210000700000209D
:103440000000002054696D653A20257300000000DB
:10345000506C656173652074616B65206E6F7721B8
:103460000000000054616B656E210000257320543C
:10347000616B656E000000005072657373204B45F0
:10348000595F555020746F2072657475726E00001C
:10349000456E7620416C65727421000000003E404C
:1034A00054656D7020486967683A20252E3166435F
:1034B000000000000000244054656D70204C6F77C0
:1034C0003A20252E3166430048756D6920416C65B0
:1034D00072743A20252E316625250000506C6561F6
:1034E000736520636865636B2100000030B58DB0A3
:1034F0004CF21860FDF7CEFC1F203B4908804CF2CF
:1035000018603A4908803AA018211E23C822CDE944
:1035100000100A215020FDF7D3FD38494868FCF718
:10352000A1FE044622460B4635A108A8FEF7E8FF97
:1035300032498868FCF796FE044622460B4633A1C2
:1035400003A8FEF7DDFF00202749088008A81821FE
:103550001E23C822CDE900103C215020FDF7B0FD0C
:1035600003A818211E23C822CDE900105A2150209B
:10357000FDF7A6FD21484078C0B128A018211E23E0
:10358000C822CDE9001096213C20FDF799FD26A028
:1035900010211E23C822CDE90010B4211846FDF7E2
:1035A0008FFD4FF47840104908800DE022A01821CB
:1035B0001E23C822CDE9001096215020FDF780FD82
:1035C0004FF4FC60084908800020074908801DA0CE
:1035D00010211E23C822CDE900104FF4827114205F
:1035E000FDF76EFD0DB030BD5400002056000020E8
:1035F000456E7620496E666F000000007000002066
:1036000054656D703A20252E3166430048756D690A
:103610003A20252E3166252500000000456E7620D3
:10362000416C657274210000506C656173652063A4
:103630006865636B21000000456E76204E6F726DE9
:10364000616C00004B45595F55503A2052657475C6
:10365000726E000000B59BB04FF6FF70FDF71AFCCC
:103660001F204E4908804FF6FF704D4908804DA03D
:1036700018211E23C822CDE900100A213C20FDF7A5
:103680001FFD4D4840784C4909784B4AD279CDE925
:103690000021029048488379828848A116A8FEF745
:1036A0002FFF00203D49088016A810211E23C822A4
:1036B000CDE9001032210846FDF702FD4648C078EA
:1036C00045498978884228DA4348C07800EB4001B0
:1036D00001EB001041490844407C00903E48C0780E
:1036E00000EB400101EB00103C490844037C3A48E0
:1036F000C07800EB400101EB00103849421838A1B6
:103700000CA8FEF7FDFE0CA810211E23C822CDE94F
:10371000001050211846FDF7D3FC2F48407840B1E7
:1037200034A104A8FEF7ECFE4FF478401B49088052
:1037300007E033A104A8FEF7E3FE4FF4FC6017494D
:10374000088004A810211E23C822CDE900106E2194
:103750005020FDF7B5FC0020104908802BA0102157
:103760001E23C822CDE9001011461420FDF7A8FC45
:103770002AA010211E23C822CDE90010DC2114202C
:10378000FDF79EFC28A010211E23C822CDE90010C1
:10379000F0211420FDF794FC1BB000BD5400002064
:1037A00056000020536D617274204D656469636931
:1037B0006E6520426F7800007C0000202530346464
:1037C0002D253032642D2530326420253032643A84
:1037D000253032640000000070000020000000204E
:1037E0004E6578743A20257320253032643A2530AE
:1037F00032640000456E7620416C657274210000D1
:10380000456E76204E6F726D616C00004B455930ED
:103810003A204D65646963696E6500004B45593116
:103820003A20456E760000004B45595F55503A20CE
:1038300052657475726E000070B590B032254CF20E
:103840001860FDF727FB1F20334908804CF21860F1
:103850003249088032A018211E23C822CDE9001069
:103860000A215020FDF72CFC002440E004EB44002A
:1038700000EB04102E490844807C08B12DA600E01E
:103880002EA604EB440000EB041029490844407CB8
:10389000CDE9000604EB440000EB04100844037C6F
:1038A00004EB440000EB0410421827A103A8FEF724
:1038B00027FE04EB440000EB04101D490844807C03
:1038C00010B14FF4FC6001E04FF4784012490880D9
:1038D00003A810211E23C822CDE90010294618464E
:1038E000FDF7EEFB05F11E00C5B2601CC4B21A481C
:1038F0008078A042BADC00200749088017A0102178
:103900001E23C822CDE900104FF482711420FDF768
:10391000D7FB10B070BD00005400002056000020FE
:103920004D65646963696E6520496E666F000000CD
:103930000000002054616B656E0000004E6F742023
:1039400074616B656E000000257320253032643A87
:103950002530326420257300700000204B45595FEC
:1039600055503A2052657475726E0000002005496A
:1039700008704870032088700020C8704860886014
:1039800070470000700000200FB438B505A8009003
:103990000F48009A0499FEF7C7FD002000900C48DC
:1039A000FCF7E2FB85B200240DE000BF402109488E
:1039B000FEF7C2FC0028F9D00548015D0548FEF776
:1039C00088FD601C84B2AC42EFDB38BC5DF814FBB0
:1039D000DE0200200048004000000000000000005F
:1039E00000000000000000003F4000000000000058
:1039F00000003000400030004000000009000BC013
:103A00003D000BC03D00090018C024407FE022406B
:103A100031800000180024C01B000D80324001805E
:103A200003801C4027401C800740004010006000BD
:103A300000000000000000000000000000001F80E7
:103A4000204040200000402020401F800000000057
:103A5000090006001F8006000900000004000400A1
:103A60003F8004000400000000100060000000001F
:103A70000000000004000400040004000400000032
:103A8000000000400000000000000000002001C015
:103A900006003800400000001F80204020402040E9
:103AA0001F800000000010403FC0004000000000E8
:103AB00018C02140224024401840000010802040BF
:103AC000244024401B80000002000D0011003FC074
:103AD000014000003C80244024402440238000001A
:103AE0001F80244024403440038000003000200028
:103AF00027C03800200000001B80244024402440C0
:103B00001B8000001C0022C0224022401F800000B9
:103B1000000000000840000000000000000000005D
:103B20000460000000000000000004000A00110012
:103B30002080404009000900090009000900000038
:103B400000004040208011000A00040018002000FE
:103B500023402400180000001F80204027402940F7
:103B60001F400000004007C039000F0001C00040A6
:103B700020403FC0244024401B8000001F80204084
:103B8000204020403080000020403FC020402040A6
:103B90001F80000020403FC024402E4030C0000065
:103BA00020403FC024402E00300000000F00108055
:103BB000204022403380020020403FC00400040027
:103BC0003FC02040204020403FC020402040000017
:103BD0000060202020203FC02000200020403FC067
:103BE00024400B0030C0204020403FC02040004017
:103BF000004000C03FC03C0003C03C003FC000008C
:103C000020403FC00C4023003FC020001F802040C8
:103C1000204020401F80000020403FC0244024005E
:103C2000180000001F802140214020E01FA000005C
:103C300020403FC02440260019C0004018C0244046
:103C40002440224031800000300020403FC020400E
:103C50003000000020003F80004000403F802000F6
:103C600020003E0001C0070038002000380007C0D7
:103C70003C0007C038000000204039C0060039C0B1
:103C8000204000002000384007C0384020000000DD
:103C9000304021C02640384020C000000000000015
:103CA0007FE0402040200000000070000C000380F6
:103CB000004000000000402040207FE000000000A5
:103CC0000000200040002000000000000010001054
:103CD0000010001000100010000000004000000064
:103CE00000000000000002800540054003C00040C5
:103CF00020003FC004400440038000000000038017
:103D000004400440064000000000038004402440BA
:103D10003FC0004000000380054005400340000014
:103D2000000004401FC0244024402000000002E0A6
:103D3000055005500650042020403FC004400400B8
:103D400003C000400000044027C000400000000005
:103D500000100010041027E00000000020403FC0C9
:103D60000140070004C00440204020403FC0004004
:103D70000040000007C0040007C0040003C00000AA
:103D8000044007C00440040003C00040000003805A
:103D90000440044003800000041007F00450044075
:103DA00003800000000003800440045007F000106E
:103DB000044007C002400400040000000000064068
:103DC0000540054004C00000000004001F800440BE
:103DD00000400000040007800040044007C000408D
:103DE0000400070004C0018006000400060001C0B2
:103DF000070001C006000000044006C0010006C024
:103E0000044000000410071004E0018006000400D4
:103E10000000044005C0064004400000000000000F
:103E200004007BE040200000000000000000FFF0E4
:103E300000000000000040207BE0040000000000C3
:103E400040008000400020002000400000000000F2
:103E50000000000000000000000000000000000062
:103E600000001FCC000C0000000000000000080053
:103E7000300060000800300060000000022003FCF9
:103E80001E20022003FC1E200220000000000E184D
:103E900011043FFF10840C78000000000F00108414
:103EA0000F3800C0077818840078000000780F846D
:103EB00010C411240E9800E4008400080800680073
:103EC0007000000000000000000000000000000082
:103ED000000007E018182004400200000000400223
:103EE0002004181807E00000000000000240024013
:103EF00001800FF00180024002400000008000803D
:103F000000800FF800800080008000000001000D9C
:103F1000000E000000000000000000000000008013
:103F20000080008000800080008000800000000C85
:103F3000000C00000000000000000000000000066F
:103F4000001800600180060018002000000007F043
:103F5000080810041004080807F000000000080416
:103F600008041FFC000400040000000000000E0C08
:103F700010141024104411840E0C000000000C18C2
:103F800010041104110412880C700000000000E0FD
:103F90000320042408241FFC0024000000001F98B4
:103FA000108411041104108810700000000007F044
:103FB00008881104110418880070000000001C001B
:103FC000100010FC13001C001000000000000E3850
:103FD00011441084108411440E38000000000700C2
:103FE000088C10441044088807F00000000000000E
:103FF0000000030C030C00000000000000000000A3
:104000000001010600000000000000000000008028
:1040100001400220041008081004000002200220C1
:1040200002200220022002200220000000001004D2
:1040300008080410022001400080000000000E006B
:104040001200100C106C10800F00000003E00C1820
:1040500013E4142417C4082807D000000004003C0F
:1040600003C41C40074000E4001C000410041FFCB3
:104070001104110411040E880070000003E00C18F4
:1040800010041004100410081C10000010041FFC81
:10409000100410041004080807F0000010041FFCAE
:1040A0001104110417C410040818000010041FFCA8
:1040B0001104110017C010000800000003E00C18E4
:1040C0001004100410441C780040000010041FFC71
:1040D00010840080008010841FFC10040000100475
:1040E00010041FFC10041004000000000003000175
:1040F000100110011FFE10001000000010041FFC32
:10410000110403801464181C1004000010041FFC28
:104110001004000400040004000C000010041FFC44
:104120001F0000FC1F001FFC1004000010041FFCF7
:104130000C04030000E010181FFC100007F0080832
:10414000100410041004080807F0000010041FFCFD
:1041500010841080108010800F00000007F00818F5
:1041600010241024101C080A07F2000010041FFC81
:104170001104110011C011300E0C000400000E1CBF
:1041800011041084108410441C3800001800100022
:1041900010041FFC100410001800000010001FF88D
:1041A00010040004000410041FF8100010001E008A
:1041B00011E0001C007013801C0010001FC0103C98
:1041C00000E01F0000E0103C1FC000001004180CAD
:1041D000163401C001C01634180C100410001C0065
:1041E000130400FC13041C00100000000804101C41
:1041F0001064108413041C04101800000000000058
:1042000000007FFE4002400240020000000030003B
:104210000C0003800060001C00030000000040024E
:10422000400240027FFE000000000000000000008D
:10423000200040004000400020000000000100017C
:104240000001000100010001000100010000400028
:104250004000200000000000000000000000009866
:10426000012401440144014400FC000410001FFC2F
:104270000088010401040088007000000000007044
:10428000008801040104010400880000000000709F
:1042900000880104010411081FFC0004000000F85C
:1042A000014401440144014400C80000000001042D
:1042B00001040FFC1104110411001800000000D6C5
:1042C00001290129012901C90106000010041FFC70
:1042D000008401000100010400FC0004000001044E
:1042E000190419FC00040004000000000000000391
:1042F00000010101190119FE0000000010041FFC5B
:104300000024004001B4010C01040000000010046E
:1043100010041FFC0004000400000000010401FC64
:104320000104010001FC0104010000FC010401FC86
:10433000008401000100010400FC0004000000F8FA
:10434000010401040104010400F80000010101FF5F
:104350000085010401040088007000000000007066
:10436000008801040104010501FF000101040104AA
:1043700001FC00840104010001800000000000CC69
:1043800001240124012401240198000000000100FF
:10439000010007F80104010400000000010001F819
:1043A000000400040004010801FC00040100018075
:1043B0000170000C001001600180010001F0010C8F
:1043C000003001C00030010C01F0010000000104C8
:1043D000018C00740170018C010400000101018155
:1043E0000171000E001801600180010000000184CD
:1043F000010C013401440184010C000000000000A4
:104400000000000001003EFC4002400200000000ED
:1044100000000000FFFF000000000000000040025C
:1044200040023EFC010000000000000000006000AF
:1044300080008000400040002000200000000000BC
:10444000000000000000000000000000000000006C
:10445000000000000000000000000000000000005C
:104460000000000000000000000000000000000F3D
:1044700080380FFE380F8038000000000000000078
:104480000000000000000000000001000006000025
:104490000C00003800003100000600000C0000385D
:1044A0000000300000000000000000006180006794
:1044B000F807F98000618000618000618000618000
:1044C0000067F807F980006180000000000000002C
:1044D000000001C0E003E0F00630080418081FFFE8
:1044E000FE040E080787F00381E0000000000000D2
:1044F00001F000060C00040408060C7001F9C0006D
:104500000E00003BE000EC18070808040C1800033C
:10451000E00000000001E00007F003F818041C08A8
:1045200004170807E1D003C0E00023B0003C0800F6
:104530002008000010000000000000010000310011
:10454000003200001C00000000000000000000001D
:10455000000000000000000000000000000000005B
:104560000000000000000000000000007F0001FFCC
:10457000C00780F00C0018100004200002000000AA
:104580000000002000021000040C00180780F00159
:10459000FFC0007F000000000000000000000000DD
:1045A00000000000000000004200006600006600FD
:1045B000003C0000180003FFC0001800003C000091
:1045C00066000066000042000000000008000008CD
:1045D0000000080000080000080001FFC0000800FB
:1045E00000080000080000080000080000000000AB
:1045F000000100003100003200001C00000000003B
:1046000000000000000000000000000000000000AA
:10461000000000000800000800000800000800007A
:10462000080000080000080000080000080000085A
:10463000000000000000000000000000380000380A
:104640000000380000000000000000000000000032
:104650000000000000000000000000000006000054
:104660001C000070000180000E0000380000C00037
:104670000700001C000030000000000000000000E7
:104680007F8001FFE003807006001804000804002A
:104690000806001803807001FFE0007F8000000022
:1046A00000000000000001000801000801000803EC
:1046B000FFF807FFF80000080000080000080000ED
:1046C0000000000000000001C03802C0580400983B
:1046D000040118040218040418061C1803F8180131
:1046E000E0F800000000000000000001C0E003C08E
:1046F000F004000804080804080806180803F41861
:1047000001E7F00001E000000000000000000000F0
:104710000300000D0000110000610000810803018A
:104720000807FFF80FFFF80001080001080000006B
:104730000000000000E007FCD0060808061008068C
:104740001008061008061838060FF00607C000000B
:1047500000000000000000003F8001FFE003843003
:1047600002081804100804100804100807181003A1
:104770000FF00007C000000000000000000003C0B0
:10478000000700000600000600F80607F8061800FB
:1047900006E0000700000600000000000000000125
:1047A000E1E003F7F0063410041808041808040CBC
:1047B00008040C0806161803F3F001C1E00000001D
:1047C00000000000F80003FC30030638040208046F
:1047D00002080402080404100308F001FFC0007F6F
:1047E00000000000000000000000000000000000C9
:1047F00000000000703800703800703800000000C1
:1048000000000000000000000000000000000000A8
:104810000000000000000000301A00301C00000002
:104820000000000000000000000000000000000088
:104830000000000800001400002200004100008079
:104840008001004002002004001008000800000061
:1048500000000000210000210000210000210000D4
:104860002100002100002100002100002100002182
:104870000000000000000000000008000804001014
:104880000200200100400080800041000022000062
:10489000140000080000000000000003C00004C075
:1048A00000040000080038080F3808083808100015
:1048B0000C300007E00003C0000000000000000012
:1048C0003F8000FFE0038070020F1006708804C074
:1048D00088048308047F8802C09003012000FE4002
:1048E0000000080000180001F8003E0801C200079F
:1048F000020007E20000FE00001FC80001F80000EF
:104900003800000804000807FFF807FFF80408084B
:1049100004080804080804080806180803F4180125
:10492000E7F00001E0000000000000003F8001FF10
:10493000E003807002001804000804000804000866
:104940000400100600200780C000000004000807D3
:10495000FFF807FFF804000804000804000804003A
:104960001802001003807001FFE0007F800000004B
:1049700004000807FFF807FFF80408080408080403
:104980000808040808043E0804000806001801008E
:104990006000000004000807FFF807FFF80408089B
:1049A000040800040800040800043E000600000695
:1049B0000000018000000000000000003F8001FFB7
:1049C000E0038070060018040008040208040208CE
:1049D0000203F00783F00002000002000400080751
:1049E000FFF807FFF80408080008000008000008A6
:1049F0000000080004080807FFF807FFF804000893
:104A0000000000000000040008040008040008077B
:104A1000FFF807FFF804000804000804000800007D
:104A20000000000000000000000600000700000178
:104A300004000104000104000307FFFE07FFFC045B
:104A4000000004000004000004000807FFF807FF4E
:104A5000F8040C08001800003E0004C7800503C8D5
:104A60000600F804003804001800000804000807D5
:104A7000FFF807FFF8040008000008000008000025
:104A80000800000800000800001800006000000096
:104A900004000807FFF807800807FC00007FC0003B
:104AA00003F80007C000780007800807FFF807FF39
:104AB000F804000804000807FFF807000803C00016
:104AC00000E000003800001E000007000001C004E4
:104AD00000F007FFF8040000000000007F8001FFE5
:104AE000E00380700600180400080400080600189F
:104AF00003003001FFE0007F800000000400080791
:104B0000FFF807FFF8040408040400040400040488
:104B100000040400060C0003F80001F0000000008F
:104B2000000000007F8001FFE00380700600880421
:104B300000880400C806003C03003E01FFE6007F39
:104B40008400000004000807FFF807FFF8040808C5
:104B5000040800040C00040F00040BC00610F0034E
:104B6000F03801E00800000800000001E0F803F060
:104B700030063010041808041808040C08040C0847
:104B80000206180207F00781E0000000018000061D
:104B9000000004000004000004000807FFF807FFFD
:104BA000F804000804000004000006000001800072
:104BB00004000007FFE007FFF004001800000800F1
:104BC000000800000800000800000804001007FFAB
:104BD000E004000004000006000007E00007FE00FB
:104BE000041FE00001F80000380001E0043E000767
:104BF000C00006000004000004000007E00007FFFA
:104C0000C0041FF80007C007F80007FF80043FF842
:104C10000007C004F80007000004000000000004C2
:104C2000000806001807C07805F1C8003E00001F04
:104C3000800463E80780F8060018040008000000FC
:104C400004000006000007800007E008047C08005C
:104C50001FF80007F800180804E008070000060025
:104C6000000400000000000100080600380400F8FD
:104C70000403E8040F08047C0805F00807C00807CF
:104C800000180400600000000000000000000000A8
:104C9000000000000000003FFFFE20000220000294
:104CA000200002200002200002000000000000009E
:104CB000000008000007000000C0000038000006E7
:104CC000000001C000003000000E000001000000E4
:104CD000000000000000200002200002200002204E
:104CE00000022000023FFFFE000000000000000064
:104CF00000000000000000000000000000080000AC
:104D000010000030000020000030000010000008FB
:104D10000000000000000000000001000001000091
:104D2000010000010000010000010000010000017D
:104D3000000001000001000001000001000000006F
:104D40000000000000200000200000100000100003
:104D50000000000000000000000000000000000053
:104D60000000000000F00019F8001B1800220800E5
:104D70002608002408002410003FF8001FF8000057
:104D80000800001800000004000007FFF80FFFF003
:104D90000018180010080020080020080030180033
:104DA0001FF0000FC00000000000000007C0001F3F
:104DB000F0001830002008002008002008003C08FF
:104DC000001C100000600000000000000000000057
:104DD00007C0001FF000381800200800200800203D
:104DE0000804101007FFF80FFFF00000100000008B
:104DF0000000000000000007C0001FF0001230009B
:104E00002218002208002208003208001E10000E9E
:104E10002000000000000000200000200800200802
:104E200001FFF803FFF80620080420080420080703
:104E3000200003000000000000000000000E000E33
:104E40006E001FF30031B10020B10020B10031919C
:104E5000001F13002E1E00200E0030000000000472
:104E6000000807FFF80FFFF80010080020000020DE
:104E700000002008003FF8001FF8000008000000B4
:104E800000000000000000200800200800200806A4
:104E90003FF8063FF8000008000008000008000086
:104EA00000000000000000000000000003000003FC
:104EB000002001002001002003063FFE063FFC0009
:104EC000000000000000000000000004000807FFD0
:104ED000F80FFFF8000188000300002FC00038F829
:104EE000002038002008000008000000000000003A
:104EF000000004000804000804000807FFF80FFF82
:104F0000F800000800000800000800000000000091
:104F1000002008003FF8003FF800100800200000C3
:104F20003FF8003FF8001008002000003FF8003F65
:104F3000F8000008000000002008003FF8003FF8DB
:104F4000001008001000002000002008003FF800BA
:104F50001FF80000080000000000000007C0000F5C
:104F6000F000183000300800200800200800300849
:104F7000001830000FF00007C00000000000000023
:104F80002001003FFF003FFF00101100200900201A
:104F900008002008003038001FF0000FC00000009B
:104FA0000000000007C0001FF000381800200800B3
:104FB0002008002009001011001FFF003FFF000023
:104FC00001000000002008002008002008003FF831
:104FD000003FF8000808001008002008002000002A
:104FE0003000003000000000000000000000000C55
:104FF00078001E18003308002308002108002188CB
:105000000021980030F0003860000000000000002F
:10501000200000200000200000FFF003FFF8002027
:1050200008002008002008000030000000000000F8
:10503000000000002000003FF0007FF80000180092
:105040000008000008002010003FF8007FF000007A
:1050500010000000000000002000003000003C00B4
:10506000003F800023F000007800007000238000E3
:105070003C00003000002000002000003C00003F09
:10508000E00023F80000E0002700003E00003FE0C1
:105090000021F80001E0003E0000200000000000B8
:1050A0002008002008003838003E680027800003F0
:1050B000C8002CF800383800201800200800000034
:1050C000000000002000003003003C01003F83008E
:1050D00023EC000070002380003C00002000002032
:1050E0000000000000000000000000380800203828
:1050F0000020F80023E8002F88003E080038080050
:1051000020180000700000000000000000000000F7
:10511000000000000000000008000014001FF7FC61
:105120003000062000020000000000000000000027
:105130000000000000000000000000000000FFFF71
:10514000FF00000000000000000000000000000060
:105150000000000000002000023000061FF7FC00E5
:105160001400000800000000000000000000000023
:105170000000000000000018000060000040000077
:10518000400000200000100000080000040000049F
:1051900000000C00001000000000000000000000F3
:1051A00000000000000000000000000000000000FF
:1051B00000000000000000000000000000000000EF
:1051C00000000000000000000000000000000000DF
:1051D00000000000000000000000000000000000CF
:1051E00000000000000000000000000000000000BF
:1051F00000000000000000000000000000000000AF
:10520000000000000000000000000000000000009E
:10521000000000000000000000000000000000008E
:10522000000000000000000000000000000000007E
:1052300007F000C007FFE1E007F001E0000000C058
:10524000000000000000000000000000000000005E
:10525000000000000000000000000000000000004E
:10526000000000000000000000000000000000003E
:10527000000000000000000000000000000000002E
:10528000000000000000000000000000000000001E
:10529000000000000000000000000000000000000E
:1052A0000020000001C00000078000001F00000077
:1052B0001E0000001C20000001C00000078000004C
:1052C0001F0000001E0000001C0000000000000085
:1052D00000000000000000000000000000000000CE
:1052E00000000000000000000000000000000000BE
:1052F00000000000000000000000000000000000AE
:10530000000000000000000000000000000000009D
:1053100000000000000000000000000000180C0069
:1053200000180C0000180FE0001FFC0003F80C0030
:1053300000180C0000180C0000180C0000180C00DD
:1053400000180FE0001FFC0003F80C0000180C0010
:1053500000180C0000000000000000000000000029
:10536000000000000000000000000000000000003D
:10537000000000000000000000000000000000002D
:10538000000000000000000000000000000000001D
:10539000000000000000000000000000000000000D
:1053A00000000780007807C000FC0640010E0020C6
:1053B00003070020020380200FFFFFFC0201C02032
:1053C0000200E0600130704001F03F8000F01F00FB
:1053D00000000000000000000000000000000000CD
:1053E00000000000000000000000000000000000BD
:1053F00000000000000000000000000000000000AD
:10540000000000000000000000000000000000009C
:10541000000000000000000000FE000001FF00008E
:105420000301800002008060030181C001FF0700CA
:1054300000FE18000000E0000003BF00000CFFC0E9
:105440000071806001C10020030180600000FFC086
:1054500000003F000000000000000000000000000D
:10546000000000000000000000000000000000003C
:10547000000000000000000000000000000000002C
:10548000000000000000000000000000000000001C
:10549000000000000000000000001F0000007FC0AE
:1054A00000FCC0C001FF80600303E02002027820FE
:1054B00002061E2003FC074001F00380000103C028
:1054C00000011C600001E0200001002000010040FC
:1054D000000001800000000000000000000000004B
:1054E00000000000000000000000000000000000BC
:1054F00000000000000000000000000000000000AC
:10550000000000000000000000000000000000009B
:10551000000000000000000000000000002000006B
:105520001C6000001C4000001F8000000F000000F5
:10553000000000000000000000000000000000006B
:10554000000000000000000000000000000000005B
:10555000000000000000000000000000000000004B
:10556000000000000000000000000000000000003B
:10557000000000000000000000000000000000002B
:10558000000000000000000000000000000000001B
:10559000000000000000000000000000000000000B
:1055A00000000000000000000000000000000000FB
:1055B000000000000007F800003FFF00007807C06F
:1055C00001C000E0030000300400000808000004EF
:1055D00010000002000000000000000000000000B9
:1055E00000000000000000000000000000000000BB
:1055F00000000000000000000000000000000000AB
:10560000000000000000000000000000000000009A
:105610000000000000000000000000001000000278
:1056200008000004040000080300003001C000E08E
:10563000007807C0003FFF000007F80000000000EE
:10564000000000000000000000000000000000005A
:10565000000000000000000000000000000000004A
:10566000000000000000000000000000000000003A
:10567000000000000000000000000000000000002A
:10568000000000000000000000000000000000001A
:10569000000000000000000000000000000000000A
:1056A000000C1800000E3800000E38000006300014
:1056B000000360000061438000FFFF800061430041
:1056C0000003600000063000000E3800000E3800B5
:1056D000000C1800000000000000000000000000A6
:1056E00000000000000000000000000000000000BA
:1056F00000000000000000000000000000000000AA
:105700000000000000000000000000000000000099
:105710000000000000000000000000000000000089
:105720000000800000008000000080000000800079
:105730000000800000008000007FFF00000080006B
:105740000000800000008000000080000000800059
:1057500000008000000000000000000000000000C9
:105760000000000000000000000000000000000039
:105770000000000000000000000000000000000029
:105780000000000000000000000000000000000019
:105790000000000000000000000000000000000108
:1057A000000000E3000000E2000000FC00000078C0
:1057B00000000000000000000000000000000000E9
:1057C00000000000000000000000000000000000D9
:1057D00000000000000000000000000000000000C9
:1057E00000000000000000000000000000000000B9
:1057F00000000000000000000000000000000000A9
:105800000000000000000000000000000000000098
:105810000000000000000000000000000000800008
:105820000000800000008000000080000000800078
:105830000000800000008000000080000000800068
:105840000000800000008000000080000000800058
:1058500000008000000000000000000000000000C8
:105860000000000000000000000000000000000038
:105870000000000000000000000000000000000028
:105880000000000000000000000000000000000018
:105890000000000000000000000000000000000008
:1058A000000000C0000001E0000001E0000000C0B6
:1058B00000000000000000000000000000000000E8
:1058C00000000000000000000000000000000000D8
:1058D00000000000000000000000000000000000C8
:1058E00000000000000000000000000000000000B8
:1058F00000000000000000000000000000000000A8
:105900000000000000000000000000000000000097
:105910000000000000000000000000000000000C7B
:1059200000000038000000E00000038000000E00CE
:10593000000038000000E00000038000000E0000BE
:105940000038000000E00000038000000E000000AE
:10595000180000000000000000000000000000002F
:105960000000000000000000000000000000000037
:105970000000000000000000000000000000000027
:105980000000000000000000000000000000000017
:105990000000000000000000000000000000000007
:1059A000000FF800007FFF0000F00780018000C0BA
:1059B000030000600200002002000020020000201E
:1059C00003000060018000C000E00380007FFF0052
:1059D000000FF800000000000000000000000000C0
:1059E00000000000000000000000000000000000B7
:1059F00000000000000000000000000000000000A7
:105A00000000000000000000000000000000000096
:105A10000000000000000000000000000000000086
:105A20000000000000800020008000200080002096
:105A30000080006001FFFFE003FFFFE00000006066
:105A400000000020000000200000002000000000F6
:105A50000000000000000000000000000000000046
:105A60000000000000000000000000000000000036
:105A70000000000000000000000000000000000026
:105A80000000000000000000000000000000000016
:105A90000000000000000000000000000000000006
:105AA000007800E0009801600100026002000460DC
:105AB00002000860020010600200206002004060E6
:105AC000030080600183006001FE00E0007C07802D
:105AD00000000000000000000000000000000000C6
